:10000000C1C20000F0C20000EEC20000ECC200005D
:10001000EAC20000E8C20000E6C20000E4C200003C
:10002000E2C200000C943F100C943F100C943F105F
:10003000DAC20000D8C20000D6C20000D4C200005C
:10004000D2C20000D0C20000CEC20000CCC200006C
:10005000CAC20000C8C20000C6C200000C94F50F5E
:10006000C2C200000C94BF0F0C94950FBCC20000DC
:10007000BAC20000B8C20000B6C20000B4C200009C
:10008000B2C20000B0C20000AEC20000ACC20000AC
:10009000AAC20000A8C20000A6C20000A4C20000BC
:1000A000A2C20000A0C200009EC200009CC20000CC
:1000B0009AC2000098C2000096C2000094C20000DC
:1000C00092C2000090C200008EC200000C945F0F2C
:1000D0000C94350F88C2000086C2000084C2000064
:1000E00082C200004E414E494E495459494E46CDB8
:1000F000CCCC3D0AD7233C17B7D13877CC2B3295DF
:1001000095E6241FB14F0A000020410000C84200BC
:10011000401C4620BCBE4CCA1B0E5AAEC59D745D29
:10012000200000002100240027002A002D003000BC
:10013000330001010000040107010A010D0A20201B
:1001400020205F5F5F20205F5F2020202020202074
:100150002020205F5F0D0A2020202F205F20292FE4
:10016000202F5F205F5F5F5F5F20202F202F5F5F6A
:100170000D0A20202F205F20202F202F202F2F201E
:100180002F205F205C2F2020275F2F0D0A202F5F5C
:100190005F5F5F2F5F2F5C5F2C202F5F2F2F5F2F04
:1001A0005F2F5C5F5C0D0A20202020202020202F64
:1001B0005F5F5F2F2076302E362E31206F6E20410C
:1001C000726475696E6F204D6567610D0A00436F3B
:1001D0006E6E656374696E672E2E2E006D73292E08
:1001E000005265616479202870696E673A200000CA
:1001F000000A0B02090C0D0E0807030401000000A1
:1002000000000000000000000000000000000000EE
:1002100000000000000000000000001211100000AB
:1002200000000000000000000000000000000000CE
:100230000000000000F502F502F502F502F502F5F6
:1002400002F502F502F502F502F502F502F502F5F6
:1002500002F502F502F502F502F502F502F502F5E6
:1002600002F502F502F502F502F502F502F502F5D6
:1002700002F502F502F502F502F502F502F502F5C6
:1002800002F502F502F502F502F502F502F502F5B6
:1002900002F502F502F502F502F502F502F502F5A6
:1002A00002F502F502F502F502F502F502F502F596
:1002B00002F502F502F502F502F502F502F502F586
:1002C00002F502F502F502F502F502F502F502F576
:1002D00002F502F502F502F502F502F502F502F566
:1002E00002F502F502F502F502F502F502F502F556
:1002F00002F502F502F502F502F502F502F502F546
:1003000002F502F502F502F502F502F502F502F535
:1003100002F502F502F502F502F502F502F502F525
:1003200002F502F502F502F502F502F502F502F515
:1003300002F502F502F402F402F402F402F402F40B
:1003400002F402460831085D081C080708EF07C7D9
:100350000772078607F402F402F402F402F402F4CE
:1003600002F402F402F402F402F402F402F402F4DD
:1003700002F402F402F402F402F402F402F402F4CD
:1003800002F402F402F402F402F402F402F402F4BD
:1003900002F402F402F402F402F402F402F402F4AD
:1003A00002F402F402F402F402F402F402F402F49D
:1003B00002F402F402F402F402F402F402F402F48D
:1003C00002F402F402F402F402F402F402F402F47D
:1003D00002F402F402F402F402F402F402F402F46D
:1003E00002F402F402F402F402F402F402F402F45D
:1003F00002F402F402F402F402F402F402F402F44D
:1004000002F402F402F402F402F402F402F402F43C
:1004100002F402F402F402F402F402F402F402F42C
:1004200002F402F402F402F402F402F402F402F41C
:1004300002F402F402496E76616C69642048572028
:10044000636D643A20005365727665723A200052FB
:1004500065646972656374696E6720746F20005209
:1004600065616479005061636B657420746F6F20FF
:100470006269673A2000436F6E6E6563742066613F
:10048000696C65642E20636F64653A2000496E765E
:10049000616C6964206175746820746F6B656E00AF
:1004A0004C6F67696E2074696D656F75740048657F
:1004B000617274626561742074696D656F75740032
:1004C000000020002300260029002C002F0032000D
:1004D00000010000030106010901000022002500BF
:1004E00028002B002E00310034000201000005011D
:1004F00008010B01050505050705080808080202A3
:1005000002020A0A080804040404010101010101AD
:1005100001010303030303030303040707070C0C90
:100520000C0C0C0C0C0C0202020206060606060657
:1005300006060B0B0B0B0B0B0B0B010210202008FC
:10054000081020401020408002010201080402012E
:10055000010204081020408080402010080402019D
:1005600080040201804020100804020108040201F6
:10057000010204081020408001020408102040807D
:10058000BB10FE1511241FBECFEFD1E2DEBFCDBFE1
:1005900000E00CBF13E0A0E0B2E0ECE8F7E300E01D
:1005A0000BBF02C007900D92AE31B107D9F726E01C
:1005B000AEE1B3E001C01D92AC33B207E1F712E047
:1005C000C1ECD2E000E006C021970109802FFE01B6
:1005D0000E94721BC03CD10780E00807A9F70E9467
:1005E000E2110C94B51B0CCD08950895AF92BF9203
:1005F000CF92DF92EF92FF920F931F93CF93DF93EF
:100600006C017B018B01040F151FEB015E01AE181D
:10061000BF08C017D10759F06991D601ED91FC913F
:100620000190F081E02DC6011995892B79F7C5015C
:10063000DF91CF911F910F91FF90EF90DF90CF90BE
:10064000BF90AF900895FC01538D448D252F30E06D
:10065000842F90E0821B930B541710F0CF960895CF
:1006600001970895FC01918D828D981761F0A28DFC
:10067000AE0FBF2FB11D5D968C91928D9F5F9F73C2
:10068000928F90E008958FEF9FEF0895FC01918D78
:10069000828D981731F0828DE80FF11D858D90E0E5
:1006A00008958FEF9FEF0895FC01918D228D892F82
:1006B00090E0805C9F4F821B91098F73992708956A
:1006C0008FE793E0F1DF21E0892B09F420E0822F0E
:1006D00008958CE194E0E8DF21E0892B09F420E023
:1006E000822F0895FC01A48DA80FB92FB11DA35A24
:1006F000BF4F2C91848D90E001968F739927848F42
:10070000A689B7892C93A089B1898C918370806464
:100710008C93938D848D981306C00288F389E02D05
:1007200080818F7D80830895EF92FF920F931F93B6
:10073000CF93DF93EC0181E0888F9B8D8C8D981394
:100740001AC0E889F989808185FF15C09FB7F894A0
:10075000EE89FF896083E889F989808183708064EC
:1007600080839FBF81E090E0DF91CF911F910F9137
:10077000FF90EF900895F62E0B8D10E00F5F1F4F46
:100780000F731127E02E8C8D8E110BC00FB607FC56
:10079000FACFE889F989808185FFF5CFCE01A2DF04
:1007A000F2CFEB8DEC0FFD2FF11DE35AFF4FF082DE
:1007B0009FB7F8940B8FEA89FB8980818062D0CF44
:1007C0000F931F93CF93DF938C01D0E0C0E0F8012B
:1007D000EC0FFD1F6491662339F08CE194E0A4DFF7
:1007E000892B11F02196F3CFCE01DF91CF911F918C
:1007F0000F910895CF93DF93EC01888D8823B1F09A
:10080000AA89BB89E889F9898C9185FD03C080811B
:1008100086FD0CC00FB607FCF7CF8C9185FFF2CF99
:10082000808185FFEDCFCE015DDFEACFDF91CF91F3
:10083000089580E090E0892B21F04BDF81110E9428
:10084000000080E090E0892B49F080E090E0892B67
:1008500029F00E94000081110E94000080E090E0D9
:10086000892B21F02DDF81110E94000080E090E0B3
:10087000892B49F080E090E0892B29F00E9400004C
:1008800081110C94000008958150823108F05AC003
:10089000E82FF0E08827E05BFB4F8F4F0C94721B32
:1008A00070047404620468046C04A20477047D0478
:1008B000810487048B048F0495049904A2049D0489
:1008C000A304A704809180008F778093800008950F
:1008D000809180008F7DF9CF80918000877FF5CF58
:1008E00084B58F7784BD089584B58F7DFBCF8091CB
:1008F000B0008F778093B00008958091B0008F7D15
:10090000F9CF809190008F77809390000895809127
:1009100090008F7DF9CF80919000877FF5CF8091F7
:10092000A0008F778093A00008958091A0008F7D14
:10093000F9CF8091A000877FF5CF809120018F773C
:10094000809320010895809120018F7DF9CF8091BF
:100950002001877FF5CFCF93DF93282F30E0F90177
:10096000E151FE4F8491F901E65CFA4FD491F9010F
:10097000EC50FB4FC491CC2399F0811185DFEC2F13
:10098000F0E0EE0FFF1FE054FB4FA591B491EC9106
:10099000ED2381E090E009F480E0DF91CF910895AC
:1009A00080E090E0FACF1F93CF93DF93282F30E0C1
:1009B000F901E151FE4F8491F901E65CFA4FD491BF
:1009C000F901EC50FB4FC491CC23A1F0162F8111FB
:1009D0005BDFEC2FF0E0EE0FFF1FE652FB4FA5911F
:1009E000B4918FB7F894EC91111108C0D095DE2323
:1009F000DC938FBFDF91CF911F910895DE2BF8CF4D
:100A0000CF93DF9390E0FC01E65CFA4F24918C5089
:100A10009B4FFC0184918823C9F090E0880F991FB7
:100A2000FC01EE5DFE4FA591B491FC01E652FB4F37
:100A3000C591D49161110DC09FB7F8948C91209508
:100A400082238C938881282328839FBFDF91CF91B5
:100A50000895623051F49FB7F8943C91822F8095AD
:100A600083238C93E8812E2BEFCF8FB7F894EC91F2
:100A70002E2B2C938FBFEACF863308F0865320911C
:100A80007B00982F9870277F922B90937B00877024
:100A9000806480937C0080917A00806480937A00E7
:100AA00080917A0086FDFCCF80917800909179004A
:100AB00008953FB7F89480916E0390916F03A091D1
:100AC0007003B091710326B5A89B05C02F3F19F0A4
:100AD0000196A11DB11D3FBFBA2FA92F982F8827BE
:100AE000BC01CD01620F711D811D911D42E0660F99
:100AF000771F881F991F4A95D1F708958F929F926B
:100B0000AF92BF92CF92DF92EF92FF926B017C0186
:100B1000D0DF4B015C01C114D104E104F104B1F058
:100B2000C8DF681979098A099B09683E7340810505
:100B3000910588F321E0C21AD108E108F10888EE96
:100B4000880E83E0981EA11CB11CE5CFFF90EF90AA
:100B5000DF90CF90BF90AF909F908F9008952FB768
:100B6000F89460916A0370916B0380916C0390918B
:100B70006D032FBF089520916703309168032817F4
:100B8000390771F49091660380916503981741F0DD
:100B9000E0916603F0E0EB5DFC4F808190E008950A
:100BA0008FEF9FEF0895EF92FF920F931F93CF93D4
:100BB000DF93DC015C96ED90FC905D97E114F1040D
:100BC00079F481E090E013969C938E93129790E0D5
:100BD00080E0DF91CF911F910F91FF90EF900895EA
:100BE0005196ED91FC91529750968C915097982F79
:100BF00090950FB75E962C915E97122F127021FD83
:100C00006095F8942081112319F1282B2083E701A6
:100C10002197F1F728E0462F50E0308160FF1AC09D
:100C2000382B3083E7012197F1F7BA017595679565
:100C3000215089F7112381F08081892380830FBFA0
:100C40005C968D919C910197F1F781E090E0C1CF86
:100C50002923DCCF3923E5CF9081892BEFCF209159
:100C60006703309168032817390769F48091650399
:100C70002091660390E0805C9F4F821B910960E4A5
:100C800070E00C943D1B90E080E008952091670394
:100C90003091680328173907B9F490916603809161
:100CA0006503981789F0E0916603F0E0EB5DFC4F77
:100CB00080812091660330E02F5F3F4F2F733327F1
:100CC0002093660390E008958FEF9FEF089590E0E2
:100CD00080E008958F929F92AF92BF92CF92DF9261
:100CE000EF92FF920F931F93CF93DF936C017B01E1
:100CF0008B01040F151F33DF4B015C01E701C017A7
:100D0000D107C0F42CDF681979098A099B09683B6F
:100D10007B408105910570F4D6018D919C91DC0199
:100D2000ED91FC910284F385E02D199597FDE7CFB5
:100D30008993E5CFCE018E199F09DF91CF911F9145
:100D40000F91FF90EF90DF90CF90BF90AF909F906A
:100D50008F900895FC0101900020E9F73197AF01D1
:100D6000481B590BBC018CE194E040CC8F929F92C0
:100D7000AF92BF920F931F93CF93DF93CDB7DEB7A0
:100D8000A1970FB6F894DEBF0FBECDBF19A24230B7
:100D900008F44AE08E010F5D1F4F842E912CB12C78
:100DA000A12CA50194010E94501BE62FB901CA0194
:100DB000EA30ECF4E05DD801EE938D01232B242B77
:100DC000252B79F790E080E0109711F0CD01C2DF7C
:100DD000A1960FB6F894DEBF0FBECDBFDF91CF91C5
:100DE0001F910F91BF90AF909F908F900895E95CF5
:100DF000E2CF6BE58CE194E097DCB1DE4AE0B6DF50
:100E00008FE191E0DDCCCF93DF93BC0190E080E0F7
:100E10004AE0ACDFEC0187E592E09CDF8C0F9D1F80
:100E2000DF91CF910895CF93DF93CADCEC0187E582
:100E300092E090DF8C0F9D1FDF91CF910895CF92AC
:100E4000DF92EF92FF92CF93DF936C01990FEE0840
:100E5000FF08F7FE1CC06DE28CE194E065DCEC015C
:100E600066277727CB016C197D098E099F094AE017
:100E70007DDFC80FD91F87E592E06CDF8C0F9D1FC7
:100E8000DF91CF91FF90EF90DF90CF9008954AE0EF
:100E9000C701B6016BDFEC01EECF009709F05ACF26
:100EA00090E080E00895CF93DF9354DFEC0187E575
:100EB00092E050DF8C0F9D1FDF91CF910895DC01F0
:100EC000ED91FC911197309761F012962D913C9124
:100ED0001397E217F30728F401900020E9F7ED9348
:100EE000FC930895FB01808191810E94421781301B
:100EF000910519F0029731F0089510927E0360E099
:100F00008DE051CD81E080937E030895FB018081C7
:100F100091810E944217682F89E045CDFC018081B4
:100F20009181009739F0228133818217930710F461
:100F30000C94421790E080E008950F931F93CF9395
:100F4000DF93EC01FB0101900020E9F78F01061B04
:100F5000170B8A819B81A801480F591F2C813D8165
:100F60002417350768F028813981A801820F931F63
:100F70000E94941B4A815B81400F511F5B834A830F
:100F8000DF91CF911F910F9108950C946E1ACF931A
:100F9000DF93FB01808191810E944217BC01990F70
:100FA000880B990B0E94501960937A0370937B030E
:100FB00080937C0390937D0320E030E040E251E495
:100FC0000E94AF190E94FD1AEB018BE090E0DDDF7B
:100FD0008AE592E062DFCE01DF91CF9130CFFB0155
:100FE000808191810E94421780937903682F8AE063
:100FF00090E0CBDF89E692E050DF6091790370E00A
:1010000090E080E04AE0B2DE87E592E0A3CEFB010B
:10101000808191810E944217809327029093280239
:10102000682F89E090E0B1DF84E792E036DF8091BD
:1010300027029091280203CFFB01808191810E94B9
:1010400042178093290290932A02682F88E090E04B
:101050009CDF83E892E021DF8091290290912A02AF
:10106000EECEFB01808191810E9442178093210284
:1010700090932202682F86E090E087DF83E992E078
:101080000CDF8091210290912202D9CEFB01808158
:1010900091810E94421780932B0290932C02682F1B
:1010A00085E090E072DF84EA92E0F7DE80912B0227
:1010B00090912C02C4CE0C94661ACF93DF93FB015F
:1010C000808191810E943F176093230270932402D4
:1010D000809325029093260220E030E040E251E424
:1010E0000E94AF190E94FD1AEB0187E090E04DDFEE
:1010F00085EB92E0D2DECE01DF91CF91A0CE0F93AF
:101100001F93CF93DF93CDB7DEB762970FB6F894F6
:10111000DEBF0FBECDBF8C01CB014AE0BE016F5FC9
:101120007F4F0E948517BE016F5F7F4FC80105DFAB
:1011300062960FB6F894DEBF0FBECDBFDF91CF91A0
:101140001F910F9108953F924F925F926F927F92FD
:101150008F929F92AF92BF92CF92DF92EF92FF92C7
:101160000F931F93CF93DF93CDB7DEB7A1970FB641
:10117000F894DEBF0FBECDBF7C012DB73EB739A3BB
:1011800028A360E070E0CB01B9DCD70157968D91C0
:101190009C915897D12C029709F400C456968C91D3
:1011A00056978F5F56968C93569754962D913C91F7
:1011B0005597232B19F0DD24D394E9C38330D8F756
:1011C000ED91FC918281882309F4C7C3FE01319619
:1011D0003F01D701ED91FC9180819181DC01ED917E
:1011E000FC910084F185E02D1995181619060CF074
:1011F000B4C345E050E0BE01695E7F4FF7018081D6
:10120000918168DD009729F3059709F066C0888D04
:10121000998D982789279827998F888FAA8CBB8CBE
:10122000BA24AB24BA24BB8EAA8E892B09F455C0EC
:101230008F89811164C093DCD70116966D937D93DD
:101240008D939C93199757962D913C918A8D9B8DE8
:10125000232B09F050C0288D398D2130310509F03C
:101260004AC08930910571F1883C910519F00497C5
:1012700009F039C0BEDD81EE91E0A2DAF7016681A6
:101280007781808591850685178520893189601B46
:10129000710B820B930B4AE069DD8CED91E0C3DDAD
:1012A000F70186819781A085B18586879787A08B76
:1012B000B18B21E030E0308F278B60E070E0CB0114
:1012C0001DDC87CF96DD8DE894E0ADDD83E090E016
:1012D000D70158969C938E935797D701ED91FC9127
:1012E0001282D12C54C385DD86E794E069DA8A8DB9
:1012F0009B8D89DDF2CF059709F06BCFEECFB1E082
:10130000AB16B4E0BB0678F074DD85E694E058DAFD
:101310008A8D9B8D78DDF701108E178A0190F08100
:10132000E02D128256CFCDB6DEB6C50101962DB79F
:101330003EB7281B390B0FB6F8943EBF0FBE2DBF2A
:101340000DB71EB70F5F1F4FA501B801D7018D91D3
:101350009C91C0DC8A159B0509F06DC0EA8DFB8D60
:10136000E00FF11F1082FBDBF70166837783808734
:1013700091878F89813109F4E1C248F58630C1F047
:101380008F3009F4B3C0823041F5D70157968D9163
:101390009C91892B69F42DDD8FE594E044DD21E0FB
:1013A00030E0F701308F278B60E070E0CB01A6DBE7
:1013B000488D598D08EC10E030E020E060E0C70176
:1013C000C2D30FB6F894DEBE0FBECDBE02CF8D31B4
:1013D000E1F260F4843109F489C0D70158961C9277
:1013E0001E925797ED91FC911282EBCF893269F0F2
:1013F000873399F78A8D9B8D892B19F3FADC86E464
:1014000094E0DED9C8014FDDDCCF84819581892B42
:1014100039F480E290E00E941A16F70195838483E4
:10142000AA8CBB8CA00EB11E1A830983BC82AB822E
:101430000A151B0530F00FB6F894DEBE0FBECDBE08
:101440004CCF40E250E0B801D70114968D919C91A9
:101450000E94A61BD7011496ED91FC91178EC30133
:101460002EDDFC018081918100E510E08A159B054D
:1014700060F489819A810097A9F12B813C818217C0
:10148000930780F50E945F178B01B3DC8FE494E033
:1014900097D9D70114968D919C91FFDC6AE38CE17A
:1014A00094E042D9C801AFDCD701ED91FC911197CE
:1014B000128258961C921E92579751DBDC01CB0189
:1014C00088589341A109B109F70182879387A487BE
:1014D000B58786839783A087B18786879787A08BF8
:1014E000B18B6FCF60E070E0CB01CECF888D998D4E
:1014F000D70155969C938E9354974A8C5B8C4801E8
:10150000840C951C1D8F0C8F9F8E8E8E08151905CF
:1015100008F026C1F801A080B180CE014C96CFDC46
:10152000DC018D919C918815990508F019C18C8D6D
:101530009D8DFC012081213459F401960E944217AF
:1015400036E3332E380E40973CF033243A9404C0EF
:10155000CE014C96E3DC382EF6E7AF16F2E7BF0675
:1015600009F499C140F531E6A31632E7B30609F450
:10157000BCC044E6A41642E7B40609F47BC050E7B9
:10158000A5165DE6B50609F0C8C18C8D9D8D881540
:10159000990508F0E5C0FC012081213409F03BC029
:1015A00001960E94421726E3B22EB80E4097BCF176
:1015B000BB24BA9434C084E6A81687E7B80609F4B9
:1015C0007DC096E7A91697E7B90609F47CC1A1E6A4
:1015D000AA16A7E7BA0609F0A0C1CE014C966FDCA7
:1015E000DC018D919C918815990508F0B9C061E0E6
:1015F000832D06DACE014C9691DC8C0161E0832DBF
:10160000FFD90115110509F46CC00F3F110509F050
:1016100081C061E067C0CE014C9680DCB82ECE015F
:101620004C964DDC0C8D1D8D66EC72E0C8010E945D
:101630009D1B60E0892B79F069EC72E0C8010E9483
:101640009D1B892B39F06DEC72E0C8010E949D1B37
:10165000892B39F461E08B2DD3D9CE014C962FDC48
:1016600094CF61ED72E0C8010E949D1B892BA9F700
:1016700062E0F1CF7A8A698A1C8A1B8A20E130E015
:101680003E8B2D8B64ED72E0CE01419656DC632DCE
:1016900070E0CE01419633DD832D5DD9BC01CE01D2
:1016A00041962DDD0B891C890150110929893A8940
:1016B00050E040E064E1C70146D252C0CE014C96F2
:1016C000FEDBDC018D919C918815990508F048C0DE
:1016D00061E0832D95D9CE014C9620DC61E0892B09
:1016E00009F460E0832D5FD93BC07A8A698A1C8A3D
:1016F0001B8AE0E1F0E0FE8BED8B67ED72E0CE013E
:1017000041961BDC632D70E0CE014196F8DC832D01
:10171000B3D9C4CFE32DF0E0E151FE4FE491E150A5
:10172000E23108F0B3C0F0E08827E656F44F8F4F5F
:101730000C94721BAC0BB40BB90BC30BCD0B460C4A
:10174000D70BDF0BE70BF10BFB0B050C140C1E0C7E
:10175000460C280C320C3C0C84B5806884BD07BD57
:10176000F701158A148A2DCE84B5806284BD08BD28
:10177000F7CF80918000806880938000109389006B
:1017800000938800EDCF809180008062809380007C
:1017900010938B0000938A00E3CF809180008860D3
:1017A0008093800010938D0000938C00D9CF80919E
:1017B000B00080688093B0000093B300D1CF8091D7
:1017C000B00080628093B0000093B400C9CF8091D4
:1017D0009000806880939000109399000093980087
:1017E000BFCF8091900080628093900010939B0007
:1017F00000939A00B5CF809190008860809390000C
:1018000010939D0000939C00ABCF8091A000806856
:101810008093A0008091A0008F7B8093A000109304
:10182000A9000093A8009CCF8091A00080628093C3
:10183000A0001093AB000093AA0092CF8091A0006B
:1018400088608093A0001093AD000093AC0088CF17
:1018500080912001806880932001109329010093DA
:1018600028017ECF80912001806280932001109317
:101870002B0100932A0174CF80912001886080930E
:10188000200110932D0100932C016ACF003811051F
:101890000CF0BFCE26CF398237FC62CFE32DF0E0CB
:1018A000EE0FFF1FEB5CFD4F2591349121153105A3
:1018B00009F456CFB2E0253F3B0709F451CFC301ED
:1018C000F90119954DCFCE014C96F9DA8C8D9D8D8D
:1018D0009C01201B310B421A530A9A8389835C8234
:1018E0004B825E824D82398A37FC3ACFE32DF0E09D
:1018F000EE0FFF1FEB5CFC4F259134912115310554
:1019000009F42ECFF2E0243F3F0709F429CFB301B9
:10191000CE014196F901199523CF6BDA85E394E066
:101920000E94E003C801BFDAD70154964D915C9143
:1019300002E010E030E020E060E0BDCE8A8D9B8DBB
:10194000800F911F1A8309839C838B8308171907C3
:1019500008F037CDC301B3DA34CD01D94B015C01B6
:10196000F70100811181D8011296DC9012978789C6
:10197000908D8130910509F089C0D1102FC08686E5
:101980009786A08AB18A108E178A12961C92D70168
:1019900056968C915697815056968C938D2DE8A132
:1019A000F9A10FB6F894FEBF0FBEEDBFA1960FB61A
:1019B000F894DEBF0FBECDBFDF91CF911F910F9185
:1019C000FF90EF90DF90CF90BF90AF909F908F905F
:1019D0007F906F905F904F903F90089586819781A0
:1019E000A085B185A5019401281B390B4A0B5B0B1F
:1019F000DA01C90189333AE49307A105B10550F032
:101A0000F8D98EEA94E00FDAD70158961C921E920C
:101A1000579764CC81319742A105B10598F4F7013D
:101A200082859385A485B585A5019401281B390B72
:101A30004A0B5B0BDA01C90181319742A105B1055F
:101A400008F4B9CBF70186859785A089B189A501EE
:101A50009401281B390B4A0B5B0BDA01C901893B46
:101A60009B40A105B10508F4A6CB10E000E030E0F2
:101A700020E050E040E066E0C70165D0D7011E9647
:101A80008D929D92AD92BC92519781CF892B09F096
:101A900092CB86859785A089B189881A990AAA0A66
:101AA000BB0ADD20B1F0F9EB8F16FBE09F06A10425
:101AB000B10408F480CB9DD980EA94E0B4D9D70171
:101AC000ED91FC911197128258961C921E92579795
:101AD00008CCB9E88B16B3E19B06A104B10408F465
:101AE0006ACB87D98EEC91E09ED9F80180819181F3
:101AF000DC01ED91FC910680F781E02D199581E0E4
:101B0000F801828381E090E0D70153969C938E93F5
:101B1000529712962D913C91F90101900020E9F71E
:101B200031978F01021B130B41E050E06DE1C701BB
:101B30000AD0F70182859385A485B5858687978726
:101B4000A08BB18B38CB2F923F924F925F926F92C6
:101B50007F928F929F92AF92BF92CF92DF92EF923D
:101B6000FF920F931F93CF93DF931F92CDB7DEB7F2
:101B70007C0169836A0149016DB67EB6DC01ED9195
:101B8000FC918281882309F4C5C0662369F0862F01
:101B90008B7F823009F402C16D3131F0F701878902
:101BA000908D019709F0B6C0C114D104B9F4D701E2
:101BB0005496CD90DC905597C114D10479F4529687
:101BC0008D919C915397019609F4C2C053969C93B2
:101BD0008E935297D7015296CD90DC9089818C508C
:101BE000893088F5F70182859385A485B58546817E
:101BF000578160857185481759076A077B0710F47C
:101C0000AC01BD011A012B01F2E42F0E311C411C65
:101C1000511C0E94AF05A2019101261B370B480BF6
:101C2000590BDA01C901B7FD99C0C7018CDA0E94CE
:101C3000AF05A2019101261B370B480B590BDA01A6
:101C4000C901B7FFF2CF5801B5E0AB0EB11C81144A
:101C5000910419F495E0A92EB12CEDB7FEB7EA195D
:101C6000FB090FB6F894FEBF0FBEEDBF2DB73EB710
:101C70002F5F3F4F290139813183DC24CD24DC24BF
:101C8000D2011296DC92CE921197902F812F14964A
:101C90009C938E9313978114910451F001151105B3
:101CA00039F08DB79EB70696A801B4010E94941B27
:101CB00010E000E00A151B0508F05BC06501C01AC2
:101CC000D10AB4E1CB16D10418F084E1C82ED12C8E
:101CD000D701ED91FC9180819181DC01ED91FC9126
:101CE0000280F381E02DA601B201600F711F1995EA
:101CF00068E270E080E090E00E947E05C114D104AB
:101D0000A9F5D701ED91FC911197128258961C927A
:101D10001E9257970FB6F8947EBE0FBE6DBE0FB6DB
:101D2000F8947EBE0FBE6DBE0F90DF91CF911F91D4
:101D30000F91FF90EF90DF90CF90BF90AF909F906A
:101D40008F907F906F905F904F903F902F9008956D
:101D500081E090E0F701938B828B3CCFD7015696C0
:101D60008C91811170CFC701EED96DCF0C0D1D1D67
:101D7000A1CFA016B10641F0F701108E178A01908D
:101D8000F081E02D1282C6CF0E94AF05D7011A96CE
:101D90006D937D938D939C931D97BCCF452B09F03C
:101DA00052CF05CF0F931F93CF93DF93CDB7DEB7FD
:101DB000C650D4400FB6F894DEBF0FBECDBF8C0125
:101DC000CE010196CF5FDB4F99838883C150D44009
:101DD000CD5FDB4F19821882C350D44080E094E07D
:101DE000CB5FDB4F99838883C550D4406AED72E0A6
:101DF000CE018F5F9B4FA1D870E060E0CE018F5F76
:101E00009B4F7DD9B801CE018F5F9B4F78D9CD5FB5
:101E1000DB4F08811981C350D44001501109CF5FB5
:101E2000DB4F28813981C150D44050E040E064E16B
:101E30008BEF95E088DECA5FDB4F0FB6F894DEBF0C
:101E40000FBECDBFDF91CF911F910F91089590915B
:101E5000240381E0891B80932403813019F090E0F2
:101E600080E0A0CF8FEF90E0FCCF1F920F920FB6D3
:101E70000F9211240BB60F922F933F934F935F93C2
:101E80006F937F938F939F93AF93BF93EF93FF9342
:101E90008FE793E00E947203FF91EF91BF91AF91A2
:101EA0009F918F917F916F915F914F913F912F9172
:101EB0000F900BBE0F900FBE0F901F9018951F92A2
:101EC0000F920FB60F9211240BB60F922F938F9390
:101ED0009F93EF93FF93E0918F03F09190038081A4
:101EE000E0919503F091960382FD1DC09081809151
:101EF00098038F5F8F7320919903821741F0E091CF
:101F00009803F0E0E158FC4F958F80939803FF9180
:101F1000EF919F918F912F910F900BBE0F900FBE5D
:101F20000F901F9018958081F2CF1F920F920FB6DD
:101F30000F9211240BB60F922F933F934F935F9301
:101F40006F937F938F939F93AF93BF93EF93FF9381
:101F50008CE194E00E947203FF91EF91BF91AF91E9
:101F60009F918F917F916F915F914F913F912F91B1
:101F70000F900BBE0F900FBE0F901F9018951F92E1
:101F80000F920FB60F9211240BB60F922F938F93CF
:101F90009F93EF93FF93E0912C04F0912D048081A7
:101FA000E0913204F091330482FD1DC09081809154
:101FB00035048F5F8F7320913604821741F0E091D2
:101FC0003504F0E0E45EFB4F958F80933504FF917C
:101FD000EF919F918F912F910F900BBE0F900FBE9D
:101FE0000F901F9018958081F2CF1F920F920FB61D
:101FF0000F9211242F933F938F939F93AF93BF938F
:1020000080916A0390916B03A0916C03B0916D0372
:102010003091690323E0230F2D3758F50196A11D58
:10202000B11D2093690380936A0390936B03A0937F
:102030006C03B0936D0380916E0390916F03A09138
:102040007003B09171030196A11DB11D80936E03C1
:1020500090936F03A0937003B0937103BF91AF91FE
:102060009F918F913F912F910F900FBE0F901F90D6
:10207000189526E8230F0296A11DB11DD2CF1F92FD
:102080000F920FB60F9211240BB60F922F933F931E
:102090004F935F936F937F938F939F93AF93BF9370
:1020A000EF93FF93E0916703F0916803309749F055
:1020B000A685B7858585968D91FF16C09C9189234D
:1020C000B1F4FF91EF91BF91AF919F918F917F916B
:1020D0006F915F914F913F912F910F900BBE0F9099
:1020E0000FBE0F901F9018959C91892351F7A389DB
:1020F000B4899C918589809589238C938689978959
:102100000197F1F7608D718DA685B785558538E00B
:1021100020E0CB010197F1F7822F90E0959587950C
:10212000282F4C91452309F02068315091F7868D76
:1021300081FD20958091650390E001968F7399272A
:1021400030916603381799F0A0916503B0E0AB5D5C
:10215000BC4F2C9380936503828D938D0197F1F78B
:10216000A389B4898C919589892B8C93AACF868D6C
:102170008160868FF1CF109282031092810388EEE6
:1021800093E0A0E0B0E08093830390938403A09356
:102190008503B093860327E332E0309380032093D6
:1021A0007F0345ED50E050938C0340938B0344ED47
:1021B00050E050938E0340938D0340ED50E05093D8
:1021C000900340938F0341ED50E05093920340936E
:1021D000910342ED50E0509394034093930346EDF6
:1021E00050E05093960340939503109298031092F9
:1021F000990310929A0310929B0310921F0410925D
:102200001E048093200490932104A0932204B09391
:10221000230430931D0420931C0425EC30E03093FC
:1022200029042093280424EC30E030932B042093DD
:102230002A0420EC30E030932D0420932C0421EC70
:1022400030E030932F0420932E0422EC30E03093C2
:1022500031042093300426EC30E030933304209393
:102260003204109235041092360410923704109202
:10227000380410921A061092190680931B06909348
:102280001C06A0931D06B0931E0689E492E090936D
:1022900018068093170610922E0610922D061092A3
:1022A000300610922F0610923206109231061092CC
:1022B000340610923306609135066E7F6D7F609311
:1022C00035066695617081E0682783E00E94D3043B
:1022D00061E083E00E940005EDE3F5E0E491E09326
:1022E0002706E7EFF4E0E491F0E0EE0FFF1FE6527F
:1022F000FB4F85919491909329068093280660E086
:1023000082E00E9400058091350681FD04C061E0F5
:1023100082E00E94D30482E080932306ECE3F5E0A0
:10232000E491E0932406E6EFF4E0E491F0E0EE0FB0
:10233000FF1FE054FB4F8591949190932606809364
:10234000250610921506109214061092160684E1C6
:1023500096E09093FC058093FB051092FE05109289
:10236000FD05109200061092FF05109201061092D2
:1023700002061092030610920406109205061092AF
:10238000060610920706109208061092090610928F
:102390000A0610920B0610920C0610920E0610926E
:1023A0000D061092100610920F0610921106109250
:1023B0001306109212068FEF9FEF9093FA05809309
:1023C000F9050895CF93DF9300D000D0CDB7DEB7E5
:1023D000789484B5826084BD84B5816084BD85B500
:1023E000826085BD85B5816085BD80916E0081600C
:1023F00080936E00109281008091810082608093B2
:1024000081008091810081608093810080918000B3
:102410008160809380008091B10084608093B100DE
:102420008091B00081608093B000809191008260C3
:1024300080939100809191008160809391008091C0
:1024400090008160809390008091A10082608093D1
:10245000A1008091A10081608093A1008091A000E3
:1024600081608093A000809121018260809321018E
:102470008091210181608093210180912001816000
:102480008093200180917A00846080937A0080910B
:102490007A00826080937A0080917A0081608093D4
:1024A0007A0080917A00806880937A001092C1004F
:1024B00061E089E00E94000561E089E00E94D304A8
:1024C000E0912C04F0912D0422E02083E091280477
:1024D000F09129041082E0912A04F0912B048FECF2
:1024E000808310923404E0913004F091310496E03E
:1024F0009083E0912E04F0912F048081806180838D
:10250000E0912E04F0912F04808188608083E09117
:102510002E04F0912F04808180688083E0912E0446
:10252000F0912F0480818F7D8083E0918F03F09163
:1025300090032083E0918B03F0918C031082E09153
:102540008D03F0918E0383E3808310929703E091D3
:102550009303F09194039083E0919103F09192039F
:10256000808180618083E0919103F091920380816A
:1025700088608083E0919103F0919203808180686C
:102580008083E0919103F091920380818F7D80831D
:1025900080E092E09093FE058093FD050E94AF05D8
:1025A000DC01CB0188589341A109B109809305064C
:1025B00090930606A0930706B09308068093010641
:1025C00090930206A0930306B09304068093090635
:1025D00090930A06A0930B06B0930C060E94F9068E
:1025E0008CE391E00E941307E091FB05F091FC055C
:1025F0008FE793E091838083E091FB05F091FC05E8
:10260000128210921306109212060E94AF056B01FF
:102610007C018091120690911306019781F00E942F
:10262000AF056C197D098E099F09683273428105D7
:10263000910528F48BEF95E00E94A308EACF8091E2
:102640001206909113060197B9F68091F9059091C1
:10265000FA0597FF18C00E94AF05E9EBF4E049EFD7
:1026600055E024E1DF01322F1D923A95E9F76083AE
:1026700071838283938374964E175F0799F7109244
:10268000FA051092F9058091F9059091FA054097A5
:1026900074F4E9EBF4E090E080E024813581232BB1
:1026A00009F47AC20196749680319105B1F761E020
:1026B00085E00E94000561E085E00E94D30461E0AE
:1026C00086E00E94000561E086E00E94D30461E09C
:1026D0008DE00E94000560E083E00E94000560E05C
:1026E00082E00E94000562E084E00E94000562E052
:1026F0008CE00E94000562E087E00E94000562E035
:1027000088E00E94000562E08AE00E94000562E025
:102710008BE00E94000585E090E00E945B0890E05D
:1027200090932C0280932B0286E090E00E945B083D
:1027300090E0909322028093210287E090E00E9433
:102740005B08682F70E090E080E0A8D520E030E0E2
:1027500040E251E4EAD6609323027093240280930E
:1027600025029093260288E090E00E945B0890E0AA
:1027700090932A028093290289E090E00E945B08EE
:1027800090E090932802809327028AE090E00E94D4
:102790005B08809379038BE090E00E945B08682FD0
:1027A00070E090E080E07AD520E030E040E251E453
:1027B000BCD660937A0370937B0380937C039093E1
:1027C0007D0322242394312C8BEF95E00E94A308F3
:1027D0000E94AF052B013C0109EB14E01A83098329
:1027E000A981BA8153961C921E92529714968D918C
:1027F0009C911597892B89F18D909D90AD90BC90FF
:102800001397C301B201681979098A099B091996BE
:10281000CD90DD90ED90FC901C976C157D058E059C
:102820009F05D8F0A70196013BD7C701B60116D77F
:10283000860E971EA81EB91EE981FA8180829182B8
:10284000A282B3828189882341F0258536852115AE
:10285000310509F03EC1338A228A29813A812C5EF2
:102860003F4F3A832983295F354009F0B9CFD8011A
:1028700052968D919C915397892B99F11496ED91D5
:10288000FC91159718968C911897882309F43FC1ED
:1028900016968D919C911995F801828993890297DA
:1028A00001F58091F9059091FA05892BD1F0848189
:1028B0009581892BB1F0D801E4E11D92EA95E9F701
:1028C0000E94AF05D8016D937D938D939C931397D0
:1028D0008091F9059091FA0501979093FA058093FC
:1028E000F9050C5E1F4FE981FA81E017F10709F045
:1028F000BECF8DED92E00E944D0789E00E94AB04AF
:102900000E941F0780E00E943C050E94AF050E94C4
:10291000AF058CE00E94AB04892B21F461E08DE0CF
:102920000E94D30480917E03813009F00EC161E0E2
:102930008DE00E94D30461E085E00E94D3048BEE19
:1029400092E00E94530780912B0290912C0248EE56
:1029500053E0849F9001859F300D949F300D11248A
:102960003A8329838091290290912A02849F8001D1
:10297000859F100D949F100D1124A0912702B091F6
:10298000280220E63AEEB6D66B017C0120E030E06A
:102990004AE754E460912302709124028091250259
:1029A00090912602DCD429D64B015C0120E030E076
:1029B0004AE754E460917A0370917B0380917C0331
:1029C00090917D03CCD419D62B013C0187E00E9465
:1029D000AB040E941F0788E00E94AB040E941F07FF
:1029E0008AE00E94AB040E941F078BE00E94AB04A8
:1029F0000E941F0787E00E94AB04892B09F089C061
:102A000089EF92E00E945307A981BA81BD01BB0FF3
:102A1000880B990B0E947E0588E093E00E94530783
:102A20001E821D829801110F440B550B29833A8396
:102A30004B835C8380912102909122024D815E81C3
:102A4000481759070CF084C080917903813041F414
:102A500060E086E00E94D304C301B2010E947E05BB
:102A600060E086E00E94D30461E070E080E090E0E6
:102A70000E947E0560E085E00E94D304C501B40198
:102A80000E947E0561E085E00E94D30461E086E05B
:102A90000E94D30462E370E080E090E00E947E0533
:102AA00069817A818B819C810E947E058091770368
:102AB000909178030196909378038093770386E151
:102AC00093E00E9453078D819E8101969E838D83A2
:102AD000B1CFA981BA811F968D919C915097821791
:102AE000930708F0BACE53963C922E9252970196D5
:102AF00050969C938E931F978217930708F4ADCE40
:102B0000E2E0F0E05396FC93EE935297A6CE19952F
:102B1000C3CE88E00E94AB04892B09F471CF8AE010
:102B20000E94AB04892B09F46BCF8BE00E94AB04AD
:102B3000892B09F465CF8CE00E94AB04892B49F501
:102B400081E080937E03109272030E9419043CCEB0
:102B50000E94AF054B015C01809273039092740355
:102B6000A0927503B092760380917203813019F7B9
:102B700084E00E94AB04809372030E94AF05681941
:102B800079098A099B09C616D706E806F90660F78F
:102B9000D2CF10927E03D7CF24E1289FD001299F66
:102BA000B00D1124A754BB4FBA83A98388EE93E0DC
:102BB000A0E0B0E0E981FA8181879287A387B4879A
:102BC00087E29FE09583848317821682108616869B
:102BD000158681E0818B0E94AF05A981BA816D9332
:102BE0007D938D939C9313978091F9059091FA05AD
:102BF00001969093FA058093F90559CD89E492E006
:102C0000909318068093170680916703909168034C
:102C10008751964071F4E0912A06F0912B0690813D
:102C200080912C06809589238083109268031092EE
:102C3000670308950F931F93CF93DF93823091051D
:102C400010F482E090E0E0913806F091390630E02F
:102C500020E0B0E0A0E0309799F42115310509F4A7
:102C60004AC0281B390B24303105D8F58A819B8155
:102C70006115710589F1FB0193838283FE0111C007
:102C8000408151810281138148175907E0F04817AC
:102C9000590799F4109761F012960C9312971396B6
:102CA0001C933296CF01DF91CF911F910F91089520
:102CB0000093380610933906F4CF2115310551F0F1
:102CC0004217530738F0A901DB019A01BD01DF016A
:102CD000F801C1CFEF01F9CF909339068093380600
:102CE000CDCFFE01E20FF31F819391932250310962
:102CF00039832883D7CF2091360630913706232B8E
:102D000041F420912F023091300230933706209306
:102D1000360620912D0230912E022115310541F405
:102D20002DB73EB74091310250913202241B350B32
:102D3000E0913606F0913706E217F307A0F42E1B58
:102D40003F0B2817390778F0AC014E5F5F4F24170F
:102D5000350748F04E0F5F1F5093370640933606F5
:102D6000819391939FCFF0E0E0E09CCFCF93DF93EE
:102D70000097E9F0FC01329713821282A091380685
:102D8000B0913906ED0130E020E01097A1F42081E8
:102D90003181820F931F2091360630913706281714
:102DA000390709F061C0F0933706E0933606DF91EA
:102DB000CF910895EA01CE17DF07E8F54A815B81DC
:102DC0009E0141155105B1F7E901FB83EA83499161
:102DD0005991C40FD51FEC17FD0761F480819181D3
:102DE0000296840F951FE9019983888382819381DC
:102DF0009B838A83F0E0E0E012968D919C9113977B
:102E00000097B9F52D913C911197CD010296820F53
:102E1000931F20913606309137062817390739F667
:102E2000309751F51092390610923806B093370654
:102E3000A0933606BCCFD383C28340815181840FD7
:102E4000951FC817D90761F44E5F5F4F888199813C
:102E5000480F591F518340838A819B8193838283CA
:102E60002115310509F0B0CFF0933906E09338060B
:102E70009ECFFD01DC01C0CF13821282D7CF66271F
:102E8000772783C0FC0188279927E8942191203275
:102E9000E9F3293010F02E30C8F32B3239F02D32FF
:102EA00031F4689403C050D0820F911D21912053BA
:102EB0002A30C8F31EF4909581959F4F08951F9373
:102EC000FC0199278827BC01E89411911032E9F39D
:102ED000193010F01E30C8F31B3249F01D3241F496
:102EE000689405C01CD0610F711D811D911D119149
:102EF00010531A30B8F33EF4909580957095619513
:102F00007F4F8F4F9F4F1F910895BB274A3031F459
:102F1000992322F4BDE2909581959F4F1EC0592FB1
:102F2000482F372F262F660F771F881F991F660F90
:102F3000771F881F991F620F731F841F951F660FCD
:102F4000771F881F991F08957AE0979F902D879F7C
:102F5000802D910D11240895BB27FB015527AA2729
:102F6000880F991FAA1FA41710F0A41B8395505116
:102F7000B9F7A05DAA3308F0A95DA193009779F78E
:102F8000B111B1931192CB0175C18F929F92AF9203
:102F9000BF92CF92DF92EF92FF920F931F93CF9346
:102FA000DF935C017B016115710519F0DB018D93E5
:102FB0009C9385010F5F1F4FF501D0818D2F90E00D
:102FC00039D16C01892BA9F5DD32A9F50F5F1F4FAF
:102FD000D5011196DC91C1E05801F1E0AF1AB108BA
:102FE00043E050E06CEE70E0C5012CD1892B61F517
:102FF000680182E0C80ED11C45E050E067EE70E049
:10300000C60120D1892B21F4680197E0C90ED11C9B
:10301000E114F10419F0D701CD92DC9260E070E088
:1030200080E89FEFC111F9C060E070E080E89FE7A1
:10303000F4C05801BECFDB3229F485010E5F1F4F6B
:10304000F501D181C0E0C8CF43E050E064EE70E00C
:10305000C501F8D0892BE9F0F80110E000E020E08C
:1030600030E0A9015F01B0ED8B2E8D0E89E088154F
:10307000C0F19C2E689491F88C2F8870C2FF16C006
:10308000811102C00F5F1F4F3196D501DC91C92D10
:10309000E9CFE114F10429F00E5F1F4FF70111830E
:1030A000008360E070E080EC9FE7B7C0882311F0F8
:1030B00001501109A5E0B0E01FD29B01AC01220F25
:1030C000331F441F551F280D311D411D511D283927
:1030D00099E93907490799E15907B0F2C6609C2E72
:1030E000D3CFAEEF8A1206C0C3FD3CC09C2E6894BD
:1030F00093F8CACFDF7DD534A9F580818D3239F4BC
:10310000C061DF011296818162E070E006C0DF01DC
:103110008B32C1F3119661E070E080535D01A61A15
:10312000B70A8A30F8F4E0E8CE16ECE0DE065CF48C
:10313000B601660F771F660F771FC60ED71ECC0C21
:10314000DD1CC80ED11C5D01FFEFAF1ABF0A8C91C8
:1031500080538A3098F1C4FF03C0D194C194D10840
:103160000C0D1D1DC1FF09C0E114F10431F081E017
:10317000A81AB108D701AD92BC92CA01B9018ED08C
:10318000C370C33009F490584B015C0120E030E07B
:10319000A90180D0882309F43EC0CBE1D1E017FF1C
:1031A00005C0119501951109C3E0D1E06E01B8E1A8
:1031B000CB1AD10880E2E82EF12C0EC0D501B3CF96
:1031C000FE0125913591459154910E191F09C501B4
:1031D000B401C5D04B015C01D501C4010E151F051A
:1031E0007CF72497F594E794CC16DD06A9F78A2F8F
:1031F000880F8B2F881F8F3F41F020E030E0A9011E
:10320000C501B40147D0811106C082E290E09093DD
:103210003B0680933A06C501B401DF91CF911F911F
:103220000F91FF90EF90DF90CF90BF90AF909F9065
:103230008F9008959111F6C0803219F08950855011
:10324000D0F70895FB01DC014150504088F08D918A
:1032500081341CF08B350CF4805E659161341CF078
:103260006B350CF4605E861B611171F3990B089548
:10327000881BFCCFDC01FC01672F71917723E1F7FC
:10328000329704C07C916D9370836291AE17BF0733
:10329000C8F3089540D008F481E00895E89409C087
:1032A00097FB3EF490958095709561957F4F8F4F79
:1032B0009F4F9923A9F0F92F96E9BB279395F6958F
:1032C000879577956795B795F111F8CFFAF4BB0F0D
:1032D00011F460FF1BC06F5F7F4F8F4F9F4F16C071
:1032E000882311F096E911C0772321F09EE8872FFB
:1032F000762F05C0662371F096E8862F70E060E0B7
:103300002AF09A95660F771F881FDAF7880F96952F
:10331000879597F90895990F0008550FAA0BE0E8D3
:10332000FEEF16161706E807F907C0F01216130687
:10333000E407F50798F0621B730B840B950B39F4C7
:103340000A2661F0232B242B252B21F408950A262D
:1033500009F4A140A6958FEF811D811D08950BD022
:103360007BC06CD028F071D018F0952309F05DC0B7
:1033700062C01124A5C081D0A0F3959FD1F3950F11
:1033800050E0551F629FF001729FBB27F00DB11DE9
:10339000639FAA27F00DB11DAA1F649F6627B00D79
:1033A000A11D661F829F2227B00DA11D621F739F62
:1033B000B00DA11D621F839FA00D611D221F749F70
:1033C0003327A00D611D231F849F600D211D822FB7
:1033D000762F6A2F11249F5750408AF0E1F08823FE
:1033E0004AF0EE0FFF1FBB1F661F771F881F91500B
:1033F0005040A9F79E3F510570F017C061C05F3F74
:10340000ECF3983EDCF3869577956795B795F7953D
:10341000E7959F5FC1F7FE2B880F911D96958795C5
:1034200097F9089599278827089597F99F6780E865
:1034300070E060E008959FEF80EC089500240A9406
:103440001616170618060906089500240A9412167F
:103450001306140605060895092E0394000C11F4B2
:10346000882352F0BB0F40F4BF2B11F460FF04C05F
:103470006F5F7F4F8F4F9F4F089557FD9058440FB8
:10348000551F59F05F3F71F04795880F97FB991FC3
:1034900061F09F3F79F08795089512161306140680
:1034A000551FF2CF4695F1DF08C01616170618060D
:1034B000991FF1CF86957105610508940895E894E8
:1034C000BB2766277727CB0197F90895F999FECF97
:1034D00092BD81BDF89A992780B50895262FF99954
:1034E000FECF1FBA92BD81BD20BD0FB6F894FA9AE7
:1034F000F99A0FBE0196089509D0A59F900DB49F2B
:10350000900DA49F800D911D11240895A29FB001DC
:10351000B39FC001A39F700D811D1124911DB29F07
:10352000700D811D1124911D08950CD095CF8DDF54
:1035300040F084DF30F021F45F3F19F076CF511175
:10354000BFCF79CF9ADF98F39923C9F35523B1F30D
:10355000951B550BBB27AA2762177307840738F002
:103560009F5F5F4F220F331F441FAA1FA9F333D061
:103570000E2E3AF0E0E830D091505040E695001C15
:10358000CAF729D0FE2F27D0660F771F881FBB1FD1
:10359000261737074807AB07B0E809F0BB0B802DAB
:1035A000BF01FF2793585F4F2AF09E3F510568F0F7
:1035B0003CCF86CF5F3FECF3983EDCF38695779562
:1035C0006795B795F7959F5FC9F7880F911D9695F9
:1035D000879597F90895E1E0660F771F881FBB1F55
:1035E000621773078407BA0720F0621B730B840B02
:1035F000BA0BEE1F88F7E095089504D06894B111D6
:103600005FCF089542DF88F09F5790F0B92F992738
:10361000B751A0F0D1F0660F771F881F991F1AF0DD
:10362000BA95C9F712C0B13081F049DFB1E0089511
:1036300046CF672F782F8827B85F39F0B93FCCF392
:10364000869577956795B395D9F73EF490958095D3
:10365000709561957F4F8F4F9F4F0895DB018F933A
:103660009F934ADFBF91AF91A29F800D911DA39FB1
:10367000900DB29F900D1124089597FB072E16F41C
:10368000009406D077FD08D03BD007FC05D03EF46F
:10369000909581959F4F0895709561957F4F0895FE
:1036A000A1E21A2EAA1BBB1BFD010DC0AA1FBB1F46
:1036B000EE1FFF1FA217B307E407F50720F0A21BB8
:1036C000B30BE40BF50B661F771F881F991F1A9425
:1036D00069F760957095809590959B01AC01BD014F
:1036E000CF010895EE0FFF1F881F8BBF0790F69143
:1036F000E02D19940BDFB7FF0895821B930B0895FB
:10370000AA1BBB1B51E107C0AA1FBB1FA617B70707
:1037100010F0A61BB70B881F991F5A95A9F7809523
:103720009095BC01CD010895FB01DC0102C0019020
:103730000D9241505040D8F70895FB01DC018D9166
:10374000019080190110D9F3990B0895FB01DC0158
:103750004150504048F001900D920020C9F701C03F
:103760001D9241505040E0F7089512E0C1ECD2E0C4
:1037700000E005C0802FFE01B5DF2196011DC23C8F
:0C378000D10780E00807B1F7F894FFCFF4
:10378C007334564145594174536C5343326F46312F
:10379C006A5971506F787876324758317878765A02
:1037AC000005000000003F02000200080000003C81
:1037BC00068000000000009403F6022303FA035471
:1037CC00033203460300000000D305F6026706F53A
:1037DC00022F064606BB050D0A005341564574657B
:1037EC006D706F66756F636F00534156456D6573F1
:1037FC00736166005341564570617573616369630B
:10380C006C6F0053415645706175736173636174DD
:10381C00746F00534156456E756D65726F736361BD
:10382C0074746900534156457269746172646F61B6
:10383C007676696F00534156455374656D706F739E
:10384C00636174746F00696E006F75740070776DCE
:10385C0000707500647700617700767700535441EF
:10386C00544F204F555442543D2000415454454E22
:10387C00444F20494E505554006174746573612057
:10388C007269746172646F002D2D2D7669612073DD
:0E389C0063617474690053434154544F00003B
:00000001FF
